:020000040000fa
:080000000002040000000000f2
:020000040000fa
:100008009402000094020000940200009402000090
:100018009402000094020000940200009402000080
:100028009402000094020000940200009402000070
:100038009402000094020000940200009402000060
:020000040000fa
:020000040000fa
:100400006f8120000e7f22000e0188000000000096
:1004100000012000200288000c0007004035200069
:100420000100200011000700000020000000e00093
:10043000020032000000020000000000b4020200ce
:10044000000000000040da000000fe004440a90067
:10045000000020000000e000030032000000200047
:10046000a00188004440a800000006009101880017
:10047000800078000000eb0015003700e2804000ab
:1004800032a0b4009101ba00e280400032a0b40072
:100490009102ba00e280400032a0b4000002eb00fa
:1004a000472bde00f507b200602ce10004003a00a3
:1004b0000059eb008301e900fdff3e000400370016
:1004c0006128e100010032000082eb000400070017
:1004d0001101ba000200e000e8ff3a000000060047
:1004e0003159ba008301e9000c0032002159ba00e9
:1004f0008301e900080032000400e00003003a0034
:10050000e280400032a0b400f5ff370011d9ba00f4
:100510008301e900faff3a008100e800e180400031
:1005200032a0b400000006000040da000000fe0027
:10053000800078001104b100030035009101b10082
:1005400001003c000050a0000000060000027800fe
:100550008042eb00b4cf1200fdff3a000080ea00b9
:0805600000004200000006004b
:020000040000fa
:100568001000fa0000802000f6ff07000002780063
:10057800340798000002eb0014079800048020005c
:10058800144278000402fb0004007800e6ff07002c
:100598000002780004427800644f9800048020002c
:1005a800040f7800040037001e0fe8001e029000b8
:1005b8000402e800140798001e02780094427800ac
:1005c80004c2b30084cf5200f7ff3a001e0fe800c0
:1005d8001e0290000402e800140798001e0278002a
:1005e800144278000402fb0004007800ceff0700e4
:1005f8000002780004427800744f98000400370025
:100608001e0fe8001e0290000402e800140798007c
:100618001e0278009442780004c2b30084cf5200ce
:10062800f7ff3a001e0fe8001e0290000402e800df
:10063800140798000002eb00240798000d0037000b
:100648001e0278001442780068034700ae0290004a
:1006580085024300844a78001e0fe8001e029000bd
:100668000402e800140798002e0290000402e80033
:10067800240798002e029000e50f520004003c0069
:100688009e0290003e029000848f5200ecff3500dd
:100698000002eb00040078000080fa000000060069
:020000040000fa
:1006a800000800001600000002000000416461001c
:1006b8006d20460072616e006b6c69006e205700f9
:1006c800696c66006f7264000000000000000000a2
:020000040000fa
:020000040002f8
:04aff800bd7b00001d
:020000040000fa
:020000040002f8
:04affc007f3f000093
:00000001FF
