:020000040000fa
:080000000002040000000000f2
:020000040000fa
:100008009402000094020000940200009402000090
:100018009402000094020000940200009402000080
:100028009402000094020000940200009402000070
:100038009402000094020000940200009402000060
:020000040000fa
:020000040000fa
:10040000ef8420000e7f22000e0188000000000013
:1004100000012000200288000c000700808b2000d3
:100420000100200011000700000020000000e00093
:10043000020032000000020000000000d0070200ad
:10044000000000000040da000000fe004440a90067
:10045000000020000000e000030032000000200047
:10046000a00188004440a800000006009101880017
:10047000800078000000eb0015003700e2804000ab
:1004800032a0b4009101ba00e280400032a0b40072
:100490009102ba00e280400032a0b4000002eb00fa
:1004a000472bde00f507b200602ce10004003a00a3
:1004b0000059eb008301e900fdff3e000400370016
:1004c0006128e100010032000082eb000400070017
:1004d0001101ba000200e000e8ff3a000000060047
:1004e0003159ba008301e9000c0032002159ba00e9
:1004f0008301e900080032000400e00003003a0034
:10050000e280400032a0b400f5ff370011d9ba00f4
:100510008301e900faff3a008100e800e180400031
:1005200032a0b400000006000040da000000fe0027
:100530002800fa00889fbe008a9fbe008c9fbe00e4
:1005400003866b00d10007006400e1004400320024
:100550006408e1004a0032006100e1004600320018
:100560006108e10049003200ec0647006000b80075
:100570003d02be003d03be00f48657006011b80086
:100580003d04be003d05be007d0320000b0037008a
:100590000000a0008d06e9001300320004024200b2
:1005a00085824a0006034b0087834b000000400011
:1005b00081804800020149008381490008025200fd
:1005c00089825a000a035b008b835b00f0ff3b00cb
:1005d0000802420089824a000a034b008b834b00c9
:1005e0008d06e900edff3a00848272008682720077
:1005f000f707b20087827200010032001500200068
:100600001e0490003e0b900006035400e63fb0002d
:100610000368a300070032000000a7000500a00047
:100620008301d1000281d3008180d3000080d300f8
:100630000603e8008301d1000281d3008180d3004a
:100640000080d3000002eb000482d20063000700a8
:1006500003f0a1000cf0a70003f0a0009f003700fa
:10066000640247006408e100990032003400be00d3
:100670003401be00f6ff37006108e100940032004b
:100680006011b8006000b800f1ff370003ff2700d9
:1006900002002000fbff3700889fbe008a9fbe003b
:1006a0008c1f7800b8000700bf00330003866c0081
:1006b0006450e1002e0032006420e100330032007b
:1006c0006150e1002f0032006120e1003100320072
:1006d00085855500eb07b0000900200008042000c4
:1006e000050037000804440089844c000a003100ea
:1006f0000603430087834b000001530081815b00a8
:10070000f8ff33000203be000800a0000804440004
:1007100089844c00f6ff3900c639dd00830173007f
:1007200001003200130020008904d1000884d300a6
:100730000998a300050032000800a7000300a000ec
:100740008904d1000884d3008b05e8008904d10016
:100750000884d3000001eb000281d200640007008e
:1007600001f0a1000cf0a70001f0a00097003700f5
:100770006420e100990032000801be000200be00c2
:10078000f7ff37006120e100940032006000b800fc
:10079000f3ff37000000200001f82700f0ff3700ca
:1007a000839f68000100e00002003d00600010002f
:1007b000e08018000300e00002003d00600111002d
:1007c000e0811900880007004f00e00002003b00b4
:1007d00060001000e08018000000060018002000f3
:1007e00057002000080453000d003d0006002000c3
:1007f00097fc2f000740e1001e0034008482720045
:10080000610260008301d1000281d3008180d300a6
:100810000080d3000804e800f8ff3a0047002000f9
:100820006104600005047400040464000d003200db
:1008300061004000e080480060014900e08149001b
:1008400003b8a500070032000603e8006538e100a0
:1008500004003a008301d1000281d3008180d300db
:100860000080d300f87f20000830e100030035004d
:10087000080378006000b8006011b8004433dd0060
:10088000f300b20083017300000006006804470013
:100890000294be000094be00fc0447008694be0093
:1008a0008494be00090078008101070008007800e8
:1008b0007f01070099007800814f70000b003b001a
:1008c0000800be006c0107004f00b10003003700b4
:1008d000f3ff2700f2ff2f006110b9004f06be00a2
:1008e0004f05be004f04be000080fa000000060065
:1008f00081002000618055000b003d000b002000ae
:1009000061fe2f000100e1001d00340082817100b2
:10091000610164008904d1000884d3000000e8006c
:10092000faff3a00710020006100640003007000cb
:10093000020060000900320061044400e0844c00c1
:100940000988a500050032008b05e8006808e10071
:1009500002003a008904d1000884d300f20f20007d
:100960000258e10005003d00c75ddd00f907b20057
:100970008980750008007800000006000bf8270049
:100980008b007800000005000004be006f01070026
:100990000003be000405be000200be006b0107009c
:1009a000844f7500000006000200be006450e100a4
:1009b000050036006420e100020036000968a3004b
:1009c00001003a000800be000160a0004f06780058
:1009d0004f05be004f04be0000000600f0ff2f00d0
:1009e000f1ff2700f9ff37006022b800060220005f
:1009f0000000d0008180d2000482d2008582d20023
:100a00000000a0000202520083825a00030031005d
:100a10000202420083824a000000a1000603e900ae
:100a2000f3ff3a0000000600889fbe008a9fbe00c8
:100a30003004be002005be000404440085844c0040
:100a400006054d0087854d000898be000a90be003f
:100a50000440e10005c8e10006d0e10007d8e1004c
:100a600002003100680040001008e8004f05be0099
:100a70004f04be00000006001000fa00889fbe0070
:100a80008a9fbe000605be000404be003002be0000
:100a90002003be00c4b79f00d5b79f00e6b79f00f4
:100aa000f7b79f000802520089825a000a035b00d0
:100ab0008b835b0084bf9f0095bf9f00a6bf9f00f4
:100ac000b7bf9f000498be000698be00110020002a
:100ad0004fb29700dfb297006fb39700ffb3970054
:100ae0000820e10009a8e1000ab0e1000bb8e1002c
:100af000010039008000eb00108810004f05be0097
:100b00004f04be000080fa00000006001400fa0046
:100b1000889fbe008a9fbe008c9fbe003f000700da
:100b20000605be000404be000006eb00ccb79f0023
:100b3000bcb79f00acb79f009cb79f008cb79f00cd
:100b40000d0420004fb39700bfb297008603430007
:100b50002fb29700e00f530004003d003d00070056
:100b60000f004000b0ff0700030037003900070006
:100b70000f004000c0ff0700cfb2970095bf9f0055
:100b8000e08f5200090035002b0007001400200000
:100b9000050020006033b800000072008180720000
:100ba00002017300838173001c0007000c06e8003b
:100bb0008d0f5600e3ff3a001fba9700e00f520076
:100bc00005003d000802be000a03be0000fe2f0023
:100bd0000f00400094ff07004faa9700e00f52005b
:100be00008003a000fb497009fb497002fb5970004
:100bf000bfb59700d8b79f00e9b79f00fab79f002d
:100c00008bbf9f000c0007004f06be004f05be00c3
:100c10004f04be000080fa0000000600010007003b
:100c20000000060090b79f00a1b79f00b2b79f00d9
:100c3000c3b79f0000000600010007000000060087
:100c40001fb09700afb097003fb19700cfb19700aa
:100c5000000006004f2bde0087037300a7b79f003c
:100c60004f23de00858242008502730095b79f0006
:100c7000ffaa97004f2bde0004024200040273001b
:100c800084b79f006faa97004f23de008582420041
:100c900085027300f5af9f00e9ff07004f18de00e3
:100ca0000402420000027200e4af9f00e4ff07006c
:100cb0000000400081804800020149008381490012
:100cc000d8ff07000802be000a03be0000fe2f0086
:100cd00000000600881f780018002000881f780098
:100ce0008aff07008f87e9004f04780000000600a4
:100cf000801feb0085ff07008f87e90000000600da
:100d0000889fbe008a9fbe00e00f5000e08f580011
:100d1000e00f5900e08f59000c003d006044b8001e
:100d20006055b8000000540081805c0002015d0045
:100d300083815d00180020001500070008003d00b9
:100d4000180007000004eb00050037000004eb006a
:100d50000f00070002003d001200070018002000ed
:100d6000dcff0700e00f5400060032006022b800ec
:100d70006033b8000000520081805a0002015b001d
:100d800083815b004f05be004f04be0000000600db
:100d9000e00f5200e08f5a00e00f5b00e08f5b0035
:100da000000006006044b8006055b800040254001a
:100db00085825c0006035d0087835d0000000600fd
:100dc000889fbe008a9fbe008c1f7800e00f5000f5
:100dd000e08f5800e00f5900e08f59000d003d00f2
:100de0006044b8006055b8000000540081805c0089
:100df00002015d0083815d001c0020000820e100ed
:100e000009a8e1000ab0e1000bb8e1000d003d00c7
:100e1000080037000006eb00e00f5200e08f5a0098
:100e2000e00f5b00e08f5b0006003d006044b8000f
:100e30006055b8000402540085825c0006035d0022
:100e400087835d00aaff0700e00f5600060032000e
:100e50006022b8006033b8000000520081805a0060
:100e600002015b0083815b004f0678004f05be00e6
:100e70004f04be0000000600e48240001078a3008a
:100e800007003200640240001178a3003400be0065
:100e90001401be00040032000330a7000000060069
:100ea0003500be001501be000330a00000000600a2
:100eb000800078005002be005003be004439de00be
:100ec000f700b200f37f2000030161000900320047
:100ed0000218e10016003a008501720083017300d8
:100ee000838173000008200015003a0040002000b4
:100ef0001300370085017200830173008381730042
:100f000005003a0004a8be0006a8be00100020009c
:100f10000b0037000201e9000402420085824a000a
:100f200006034b0087834b000748a300f9ff3200fc
:100f30000740a00004a8be0006a8be0020002000b4
:100f4000800098009200980000000600c70ade00aa
:100f5000f107b200f50fb20008003200e1cf420005
:100f6000020032000170a00024000500810f700013
:100f7000010032000408050044000500810f7000e4
:100f800002003a00140005008502e900000040005c
:100f900081c04800fcff3b000170a0002400050058
:020000040000fa
:100fa0000000fa00040028002408880044232100df
:100fb0000440880084672500144088000002eb008c
:100fc00004088800054080001440800011000900da
:100fd0008402d80000027800810278002440880052
:100fe00074562400351220003440880045408800a3
:100ff000f4de2c00b59a2800544088006540880033
:101000000002eb0004088800364080004740800062
:1010100054408000654080000401be000600be0010
:10102000dffd07000002be00744088008540880094
:1010300020812000f4de2c00b59a2800765624008a
:10104000371220000498be000690be00a081200048
:10105000042123004565270086a92b00c7ed2f003a
:101060000498be000690be000002eb000408880051
:10107000248120003400be002401be00a481200091
:101080005403be004402be001dff07000203be0061
:101090000002be00208220000498be000690be0020
:1010a000440a2700551424005441880065418800f3
:1010b00084eb210035262400744188008541880096
:1010c0000002eb0004088800564180006741800060
:1010d00074418000854180000401be000600be000e
:1010e0006dfd07000002be0094418800a541880004
:1010f00060832000e47a240015ae270046e12a0030
:10110000870224000498be000690be00e083200001
:10111000440a2700d5a32000763d2600c7042400fa
:101120000498be000690be000002eb000408880090
:10113000648320003400be002401be00e48320004c
:101140005403be004402be00f9fc07000002be00ca
:101150000203be00608420000498be000690be001a
:101160000002eb00040078000080fa000000060096
:020000040000fa
:10117000000800004e000000000000000000000019
:020000040000fa
:020000040002f8
:04aff800bd7b00001d
:020000040000fa
:020000040002f8
:04affc007f3f000093
:00000001FF
