:020000040000fa
:080000000002040000000000f2
:020000040000fa
:10000800d2020000d2020000d2020000d202000098
:10001800d2020000d2020000d2020000d202000088
:10002800d2020000d2020000d2020000d202000078
:10003800d2020000d2020000d2020000d202000068
:10004800d2020000d2020000d2020000d202000058
:10005800d2020000d2020000d2020000d202000048
:10006800d2020000d2020000d2020000d202000038
:10007800d2020000d2020000d2020000d202000028
:10008800d2020000d2020000d2020000d202000018
:10009800d2020000d2020000d2020000d202000008
:1000a800d2020000d2020000d2020000d2020000f8
:1000b800d2020000d2020000d2020000d2020000e8
:1000c800d2020000d2020000d2020000d2020000d8
:1000d800d2020000d2020000d2020000d2020000c8
:1000e800d2020000d2020000d2020000d2020000b8
:1000f800d2020000d2020000d2020000d2020000a8
:10010800d2020000d2020000d2020000d202000097
:10011800d2020000d202000094020000d2020000c5
:10012800d2020000d2020000d2020000d202000077
:10013800d2020000d2020000d2020000d202000067
:10014800d2020000d2020000d2020000d202000057
:10015800d2020000d2020000d2020000d202000047
:10016800d2020000d2020000d2020000d202000037
:10017800d2020000d2020000d2020000d202000027
:10018800d2020000d2020000d2020000d202000017
:10019800d2020000d2020000d2020000d202000007
:1001a800d2020000d2020000d2020000d2020000f7
:1001b800d2020000d2020000d2020000d2020000e7
:1001c800d2020000d2020000d2020000d2020000d7
:1001d800d2020000d2020000d2020000d2020000c7
:1001e800d2020000d2020000d2020000d2020000b7
:0801f800d2020000d202000057
:020000040000fa
:10020800d2020000d2020000d2020000d202000096
:10021800d2020000d2020000d2020000d202000086
:10022800d2020000d2020000d2020000d202000076
:10023800d2020000d2020000d2020000d202000066
:10024800d2020000d2020000d2020000d202000056
:10025800d2020000d2020000d2020000d202000046
:10026800d2020000d2020000d2020000d202000036
:10027800d2020000d2020000d2020000d202000026
:10028800d2020000d2020000d2020000d202000016
:10029800d2020000d2020000d2020000d202000006
:1002a800d2020000d2020000d2020000d2020000f6
:1002b800d2020000d2020000d2020000d2020000e6
:1002c800d2020000d2020000d2020000d2020000d6
:1002d800d2020000d2020000d2020000d2020000c6
:1002e800d2020000d2020000d2020000d2020000b6
:1002f800d2020000d2020000d2020000d2020000a6
:10030800d2020000d2020000d2020000d202000095
:10031800d2020000d202000094020000d2020000c3
:10032800d2020000d2020000d2020000d202000075
:10033800d2020000d2020000d2020000d202000065
:10034800d2020000d2020000d2020000d202000055
:10035800d2020000d2020000d2020000d202000045
:10036800d2020000d2020000d2020000d202000035
:10037800d2020000d2020000d2020000d202000025
:10038800d2020000d2020000d2020000d202000015
:10039800d2020000d2020000d2020000d202000005
:1003a800d2020000d2020000d2020000d2020000f5
:1003b800d2020000d2020000d2020000d2020000e5
:1003c800d2020000d2020000d2020000d2020000d5
:1003d800d2020000d2020000d2020000d2020000c5
:1003e800d2020000d2020000d2020000d2020000b5
:0803f800d2020000d202000055
:020000040000fa
:100400000f8020000e7f22000e01880000000000f7
:1004100000012000200288000c000700e03a2000c4
:100420000100200011000700000020000000e00093
:10043000020032000000020000000000ac020200d6
:10044000000000000040da000000fe004440a90067
:10045000000020000000e000030032000000200047
:10046000a00188004440a800000006009101880017
:10047000800078000000eb0015003700e2804000ab
:1004800032a0b4009101ba00e280400032a0b40072
:100490009102ba00e280400032a0b4000002eb00fa
:1004a000472bde00f507b200602ce10004003a00a3
:1004b0000059eb008301e900fdff3e000400370016
:1004c0006128e100010032000082eb000400070017
:1004d0001101ba000200e000e8ff3a000000060047
:1004e0003159ba008301e9000c0032002159ba00e9
:1004f0008301e900080032000400e00003003a0034
:10050000e280400032a0b400f5ff370011d9ba00f4
:100510008301e900faff3a008100e800e180400031
:1005200032a0b40000000600841f78003400f800f8
:1005300004002000a40188000000fa008bc0a9007c
:10054000f40f2000141688000080fa003400f9002f
:100550004f027800004006000000fa000002eb00a5
:100560000416880011000700550007008000eb000a
:1005700010002000280007009bc0a80001003700e1
:100580000000000035318000040028000482620071
:10059000e00f5200faff3200f40f2000141688001a
:1005a000f8ff37000040da000000fe000000fa000b
:1005b000143a8000040378000610a00064042000b0
:1005c0007505200027742000844b7800854b780047
:1005d000864b78000002eb00343188003531800012
:1005e0000400280004826200e00f5200070032007d
:1005f000353180000400220004826200e00f5200c6
:1006000001003a002e00070027e6a90027a6a9004e
:100610000080fa00000006000600fa0010079800ab
:1006200021079800143180004f22de000442780038
:100630000482fb00040f78001e027800e00f5200d5
:100640000b0032002e029000e00f52000200320038
:1006500023e6a900060037000000000035318000c5
:100660000400210004826200e00f5200fbff3a0008
:100670001e029000044278006f4262000482fb0078
:100680006f0262004a22dd0016318000f53f2c0027
:100690008502630004827200143188001e02780013
:1006a000e00f5200040032002e029000e00f5200d2
:1006b0000100320023e6a8000080fa0000000600d6
:1006c0000600fa00881f7800140280004522de0030
:1006d00067426200044f780094028000140798007b
:1006e000ff3ffc00140280000450a0000460a00042
:1006f0000470a000140288001e029000940288007a
:1007000058052000383b8800a80a2000383b8800a4
:1007100027a6a8009402800024079800ff3ffc0051
:100720009e42780067c262000482fb00670262009a
:100730004522dd0016028000f5f12f0085026300de
:1007400004827200140288002e0290009402880035
:0c0750004f0478000080fa000000060052
:020000040000fa
:04075c000000000099
:020000040000fa
:020000040002f8
:04aff800bd7b00001d
:020000040000fa
:020000040002f8
:04affc007f3f000093
:00000001FF
